:0400000030EF00F0ED
:0600080001824EEF13F02F
:100018000180D8CF10F0E8CF11F0E0CF12F00E0138
:10002800CEA30CD0CE934C823350D8A433062F5095
:100038003010D8B403D02F06D8A03006CAA904D0EF
:100048000F011A6B0E01CA9912C0E0FF11C0E8FF38
:0C00580010C0D8FF0190100064EF11F000
:100F0000000F070B030D0509010E060A020C040869
:100F1000000008040C020A060E0109050D030B0768
:010F200000D0
:100F2200600E0E01D86FDA6BDC6B050EDE6FDD6BC7
:100F3200836A846A856A886AC80E896E010E8A6E1F
:100F42000F01116B196B080E216F106BC00E186F19
:100F5200206B0F6B176B1F6B010E1C6F010E1B6F4B
:100F6200800E336F100E346FD00E396F3A6B020E53
:100F72003B6F050E3C6FD7B213D04B6A000E4A6E20
:100F8200496A000E486E476A000E466E456A000EB8
:100F9200446E436A000E426E3F6A000E3E6ED78276
:100FA2003E4A3F2A5AEC14F0336AF29E550E0E0165
:100FB200A06FAA0EA06FA0910D0EFE6FB551E00BAF
:100FC2001709B56FF16B550EA06FAA0EA06FA08125
:100FD200500E9F6E330E9B6E9D6A260E9E6E99502A
:100FE200F00ECE6E600ECD6ED06A010ED26E010E84
:100FF200CF6EBB6ABE6A010EBF6EC00EBD6EFA0E28
:10100200BC6E040ECC6E010EC96ECA6BCB6BCD6B7F
:10101200CE6BCF6BD06BC26BC36B010EC46FC56B53
:10102200130EC66FC76BC86BC96BBA6BBB6B010E75
:10103200BC6F300EBD6F110EBE6F010E0F013A6F05
:10104200E00EF26E146A640E136E37EC13F0C750A2
:101052004026C850412240C013F041C014F041EC78
:1010620014F0010ECC6EC96AFFEC13F04CB44CA222
:101072000BD04C944C92040036C0C9F13950010196
:10108200C919D8A45AEC14F0FFEC13F04CA00ED0FE
:101092003350D8A40BD032C0C9F14C90020E0001DB
:1010A200FE6FC9C1FFF0010EC8EC13F0130E4E64BF
:1010B20028D04DA24CBE25D0C3A04CB022D00F01E7
:1010C2001A6B0E01CA99C2894C8603000000000007
:1010D2004C96F29E140E4E6402D0140E4E6EF28E98
:1010E2000E01C299040036C0C9F10101C951391873
:1010F200D8A45AEC14F0A0EC10F01FC040F020C0AD
:1011020041F04CAEB3D74C9E82D1A505D8A4AED740
:10111200A6B102D0839601D08386A0EC12F0A6D7A6
:10112200030EA619D8A4A2D7AA0E0101C66FAC0E4F
:10113200C76FE00E1B6EA7C01CF0A8C01DF0A9C0AF
:101142001EF0C651D96EDA6ADECF1FF0DDCF20F075
:10115200C751D96EDA6ADF50216EADC022F0AEC03F
:1011620023F01AEC0AF00101C96FA0EC12F0E00EB4
:10117200176EC9C118F062EC0EF078D7A505D8A495
:1011820075D7060E606FA2C061F036C062F0080E1D
:10119200636FA4C064F0010E656F32C066F078EC34
:1011A2000BF064D70C0EA519A611D8A45FD7A251D3
:1011B200D8EC0DF05BD73650A119D8B402D1A151A9
:1011C200D8A454D7FED0550EA619D8A40DD0AA0E75
:1011D200A719D8A409D0A151D8B406D0550E356E9E
:1011E200070E10EC14F042D7356AA151D8B43ED79D
:1011F200000E10EC14F03AD7356AA151D8B436D7A4
:10120200070E10EC14F032D7550E3518D8A419D0A9
:10121200040EA75DD8B015D0410EA86112D0A85116
:10122200A6250101C46F000E0001A7210101C56FAF
:10123200C405040EC559D8B004D00001A151D8A4E8
:1012420009D0356A0001A151D8B410D7000E10ECB4
:1012520014F00CD707EC11F009D7550E3518D8A4A5
:1012620019D0040EA75DD8B015D0410EA86112D0D6
:10127200A851A6250101C46F000E0001A72101019A
:10128200C56FC405040EC559D8B004D00001A151E0
:10129200D8A409D0356A0001A151D8B4E7D6000E0E
:1012A20010EC14F0E3D68DEC13F0A8510A0DF350B4
:1012B2000A0F21EC14F02DEC10F0D8D6B5EC13F097
:1012C200D5D607EC13F0D2D6550E3518D8B408D0BF
:1012D200356AA151D8B4CAD6000E10EC14F0C6D6A5
:1012E200A151D8B403D0070E10EC14F0FF008EBE4B
:1012F200BDD6A6C0C9F1070E10EC14F0C9C136F074
:10130200146A000E136E36C015F027EC12F0AED63A
:10131200040E0101C96F040EC86F07D0C851270F10
:10132200D96EDA6ADF50D8B4C807C907C929D8A468
:10133200F5D7C851D8B49AD6040EC96F0CD0C9518A
:10134200A60FD96EDA6AC951270FE16EE26ADE5042
:10135200E618D8A4C86BC907C929D8A4F0D7C851C0
:10136200D8B484D6AAC0C9F1070E10EC14F0C6D7BF
:10137200A151D8B47BD636EC11F078D6550E35187B
:10138200D8B408D0356AA151D8B470D6000E10EC8A
:1013920014F06CD6AEEC0FF069D6550E3518D8B4F1
:1013A20008D0356AA151D8B461D6000E10EC14F001
:1013B2005DD6F0EC0FF05AD6356AFF0E10EC14F041
:1013C20055D6A551010AD8B4FED6030AD8B414D70B
:1013D200010AD8B442D7070AD8B416D70D0AD8B42E
:1013E2006DD7020AD8B470D71F0AD8B46AD70C0ACC
:1013F200D8B47DD7040AD8B4BBD7360AD8B488D7B4
:10140200010AD8B4BBD7070AD8B4C7D7D5D70001C9
:10141200A051010AD8B4CFD6020AD8B476D6070AA8
:10142200D8B47ED6010AD8B4A9D60A0AD8B4BAD694
:101432001DD61FB01F921B50D96EDA6A400EDF6EA6
:101442001B50D96EDA6A010ED926400EDF6E1B5090
:10145200D96EDA6A020ED926F00EDF6E16D01B5054
:10146200D96EDA6A030ED926040E06D01B50D96E45
:10147200DA6A030ED926080EDF6E16D01B50D96E1B
:10148200DA6A030ED926DF6A0FD02350246E256A4A
:101492002550000AD8A4F2D72450010AD8B4DFD7C5
:1014A200030AD8B4E3D7EAD71B50D96EDA6A040E1E
:1014B200D926DF6A1FA608D01B50D96EDA6A050E3C
:1014C200D926040EDF6E06D01B50D96EDA6A050EDD
:1014D200D926DF6A1FA207D01B50D96EDA6A060E20
:1014E200D926030E06D01B50D96EDA6A060ED9260B
:1014F2000F0EDF6E1BC019F0A1EC13F01FB002D06B
:101502001FA234D01B50D96EDA6A070ED926800E7C
:10151200DF6E1B50D96EDA6A080ED926400EDF6ED6
:101522001B50D96EDA6A090ED926F00EDF6E1B50F7
:10153200D96EDA6A0A0ED926DF6A1B50D96EDA6AC8
:101542000B0ED926DF6A1B50D96EDA6A0C0ED92629
:10155200DF6A1B50D96EDA6A0D0ED926DF6A1B507C
:10156200070F196EA1EC13F00E0E01D0070E266EB6
:101572001FB61F941FB81F941B502624D96EDA6A17
:10158200800EDF6E1B502624D96EDA6A010ED92630
:101592002250BBEC11F0DF6E1B502624D96EDA6AA2
:1015A200020ED9262150EDEC13F0DF6E1FA208D0F7
:1015B2001B502624D96EDA6A020ED926000EDB8E63
:1015C2001B502624D96EDA6A030ED9268E0EDF6EE0
:1015D2001FA408D01B502624D96EDA6A030ED9261E
:1015E200600EDF121FA808D01B502624D96EDA6ABB
:1015F200030ED926300EDF121FAE08D01B50262450
:10160200D96EDA6A030ED926F70EDF1620A008D0AB
:101612001B502624D96EDA6A030ED926000EDB800F
:101622001B502624D96EDA6A040ED9261D50EEEC20
:1016320012F0DF6E1FAA08D01B502624D96EDA6A78
:10164200040ED926000EDB8E20A008D01B502624C3
:10165200D96EDA6A040ED926000EDB8C1B502624C2
:10166200D96EDA6A050ED9261C50E1EC11F0DF6E54
:101672001C50D8A402D0010E1E6E1E5005EC12F0B2
:10168200246E1B502624D96EDA6A050ED926245000
:10169200DF121FA208D01B502624D96EDA6A060E6A
:1016A200D926030E07D01B502624D96EDA6A060EFD
:1016B200D9260F0EDF6E20A208D01B502624D96E29
:1016C200DA6A050ED926000EDB8C1FAC08D01B503F
:1016D2002624D96EDA6A050ED926000EDB8A1B5043
:1016E2002624196EA1EC13F02650070F12000001F8
:1016F200FA6B600E136E146ABAEC12F0F56F635156
:101702005F0FD96EDA6AF5C0DFFF050EF96F320E90
:10171200FC6F040009D000004CA402D004004C94D9
:10172200120E4E6401D012004DA28FAEF4D70E01FC
:10173200CCB1F1D7090E4E64EED70A0E4E18D8A4DA
:101742003DD0400EB16E080EB26E010EB36EA0EC2B
:1017520010F01F50B06EAF6A0E01CE9BB18ECEABB1
:10176200FED7B19ECCB102D04DA228D0420E136E4C
:1017720032EC14F0010E0001FC5FD8B41ED0FA5115
:10178200D8A417D0C6D70001FD51F56FF66B3850BB
:101792004EC0F7F0F86BF727000EF823F551F71952
:1017A20004E1F651F819D8B404D04E503824FD6F34
:1017B2000400120E4E64E7D7ACD7FF000400110EEE
:1017C2004E18D8B4FCD7120E4E18D8B4F8D704006D
:1017D200110E4E647FD0F29E84948994550E0E01B0
:1017E200A06FAA0EA06FA091F16B550EA06FAA0E6A
:1017F200A06FA081F28E4E6A848489949D9EC481DA
:10180200040E4E64FDD78494050E4E18D8B4FCD74E
:101812008FAEFED74E50D8B4FDD74C984DA285D08E
:1018220036C0FDF0040031D000000001FDAF02D04F
:10183200849401D084844EC0FBF0300ECD5CF80E4F
:10184200CE58D8A0FAD784A402D0010E01D0000E3F
:101852000001F56F8FAE02D0010E01D0000EF51B14
:10186200D8A40CD08494420E136E32EC14F0010E04
:101872000001FC5FD8A44DD7F26AFF000001FB51C2
:101882004E18D8B4FBD7D890FD37080E4E64CCD78B
:1018920084944EC0FBF0300ECD5CF80ECE58D8A02A
:1018A200FAD78FBE0BD0420E136E32EC14F0010E3B
:1018B2000001FC5FD8A42DD7F26AFF000001FB51A2
:1018C2004E18D8B4FBD7300ECD5CF80ECE58D8B037
:1018D20003D0F9D79DAE29D04C9C4C8A0001FD6BF8
:1018E20018D000004CAA21D00001FD51600FD96E22
:1018F200DA6ADF509A6E00009EA2FED70001FD5107
:10190200D8B405D00B0E4E6402D04C984C9AFD2BE5
:10191200040000016351FD5DD8A0E3D74CBAFED7A5
:101922004CA84C8C4C984CAC2BD0440E136E32EC21
:1019320014F0010E0001F95FD8B420D0010EFA6F45
:1019420099CFFDF017D000000001FD51F56FF66B45
:1019520038504EC0F7F0F86BF727000EF823F55118
:10196200F71904E1F651F819D8B404D04E503824CE
:10197200FD6F0400120E4E64E6D7CBD6F26AFF006A
:10198200480E136E32EC14F012000E01CEA142D0BA
:10199200600ECD26F00ECE22CE914E28D8A44E2A2D
:1019A2004C849DBE14D00A0E4E18D8A410D0550EE9
:1019B200A06FAA0EA06FA091090EF16F550EA06F35
:1019C200AA0EA06FA0819D8EC58B9D8899500C0E8A
:1019D2004E18D8B44DA202D04D924C9A120E4E1807
:1019E200D8A418D084948994550E0E01A06FAA0E23
:1019F200A06FA091F16B550EA06FAA0EA06FA081EF
:101A02009D9EC59B9D98010E0F013A6F0E01CC91D0
:101A1200C4814D920E01C4B1CCA12CD0CC910F0146
:101A22003AA302D08FBE03D03AA38FBE23D04C9AE2
:101A32008FBE08D0F00ECE6E600ECD6E020E3A6FE3
:101A42004E6A18D0010E3A6F4E50D8A40AD0300E0A
:101A5200CD5CF80ECE58D8A04CB603D0120E4E6E06
:101A620009D0F00ECE6E600ECD6E4E6A0E01C4919C
:101A7200386A4D820E01CDAB1200F00ECE6E600EB2
:101A8200CD6E99CF37F0CC914C840B0E4E6401D0C1
:101A9200386A0A0E4E6E4CBA03D03850D8A402D01F
:101AA2004D824D804DB24DA069D0400E386066D057
:101AB200800E3824D96EDA6A010EDA2237C0DFFFCF
:101AC200030E3818D8A408D0365001018119D8B4B1
:101AD20003D08151D8A44D90020E38644FD03850B3
:101AE200076E086AFF0E01018325096E0A6AFF0E5E
:101AF2000A220750091842E108500A18D8A43ED019
:101B0200800E026E010E036ED4EC12F00B6E800E8C
:101B12003824D96EDA6A010EDA220B50DE18D8A404
:101B22002DD04CAA17D04C8883C10BF00ED00B508D
:101B3200600FD96EDA6A800E0B24E16EE26A010E42
:101B4200E222DE50E618D8A44C8C0B060B28D8B43F
:101B520015D0EDD74C8E83C10BF00CD0800E0B2428
:101B6200D96EDA6A010EDA220B50A00FE16EE26A38
:101B7200DFCFE7FF0B060B28D8A4F0D7020E38649C
:101B820014D03850076E086AFF0E01018325096ED2
:101B92000A6AFF0E0A220750091807E108500A18BC
:101BA200D8A403D038684D924C9A382A1200010109
:101BB200C06FA0EC10F01FC0C2F120C0C3F1000141
:101BC200AA51A91106E1890EA75D130EA859D8A042
:101BD20008D0880EA76F130EA86F000EA96F000E13
:101BE200AA6FC2C113F0C3C114F0156A166AA7C066
:101BF20017F0A8C018F0A9C019F0AAC01AF0D4ECC6
:101C020010F013C0C2F114C0C3F1C2C12FF0C3C19E
:101C120030F00ED000000101C2512F1804E1C3516F
:101C22003018D8B405D02FC0C2F130C0C3F10400BF
:101C32002F503010D8A4EED7070E0001606FC0C13C
:101C420061F036C062F00D0E636FA4C064F00A0E3C
:101C5200656F676B4F0E666F040E0101C16F13D083
:101C6200A0EC10F01FC040F020C041F00101C151B2
:101C7200270FD96EDA6A40C0DFFFC151680FE16EEB
:101C8200E26ADFCFE7FFC107C129D8A4E9D778EC20
:101C92000BF0306A640E2F6E0ED000000101C251AB
:101CA2002F1804E1C3513018D8B405D02FC0C2F1A7
:101CB20030C0C3F104002F503010D8A4EED74C9E90
:101CC20012002E6A000E2D6ED8902D34D96E2E344D
:101CD200DA6ECA0ED926010EDA22E80EDE6E030E85
:101CE200DD6E2D4A2E2AD8902D34D96E2E34DA6E1E
:101CF200CA0ED926010EDA22580EDE6E020EDD6EF3
:101D02002D4A2E2AD8902D34D96E2E34DA6ECA0E70
:101D1200D926010EDA22500EDE6E460EDD6E2D4AF7
:101D22002E2A17C015F065EC0FF01750070F156E2D
:101D320065EC0FF00E0E186405D017500E0F156EDD
:101D420065EC0FF0200EC36EC46A010EC66E2C6ADB
:101D5200010E2B6E839421EECAF0DECF19F0DDCF97
:101D62001AF0191E1A1E194A1A2A19C0C1FF1AC0DE
:101D7200C2FFC38012000101036B030E266E78ECD2
:101D82000BF0346A3DD000000E01C6B3BDAE01D0E7
:101D920004004CAE35D04C9E020E0001A019D8A40E
:101DA20014D06051A519D8A410D063515F0FD96E19
:101DB200DA6ADE50A619D8A408D01FEC13F04A0E36
:101DC200136E32EC14F0D8801200080EA019D8A4B9
:101DD20008D06151A219D8A404D01FEC13F0D890F6
:101DE20012000A0EA019D8A409D03650A119D8A4FD
:101DF20005D0A5C034F0010E266E02D079EC13F0A6
:101E02000D0E4E64C0D73450D8B44DB2BCD74CBEC0
:101E1200BAD7010E265ED8A4B2D71FEC13F0460E35
:101E2200136E32EC14F0DBD7186A1550D96EDA6AE9
:101E3200DF504EEC14F018261550D96EDA6A010EF6
:101E4200D926DF50F00B4EEC14F018261550D96E3F
:101E5200DA6A020ED926DF500F0B4EEC14F0182668
:101E62001550D96EDA6A030ED926DF504EEC14F003
:101E720018261550D96EDA6A040ED926DF504EECB8
:101E820014F018261550D96EDA6A050ED926DF50DD
:101E92004EEC14F018261550D96EDA6A060ED926C1
:101EA200DF504EEC14F0182618C016F00F0E16165E
:101EB2001650010F176E17C0F6FF0F0EF76E000EC9
:101EC200F86E0800F5501200D8902D34D96E2E34D9
:101ED200DA6ECA0ED926010EDA22B80EDE6E0B0EAB
:101EE200DD6E2D4A2E2AD8902D34D96E2E34DA6E1C
:101EF200CA0ED926010EDA22280EDE6E230EDD6E00
:101F02002D4A2E2A166A15501624D96EDA6ADF5027
:101F1200DBEC13F0162A060E1664F5D7D8902D3492
:101F2200D96E2E34DA6ECA0ED926010EDA22F40EDA
:101F3200DE6E010EDD6E2D4A2E2AD8902D34D96E1A
:101F42002E34DA6ECA0ED926010EDA22B80EDE6EF1
:101F52000B0EDD6E2D4A2E2A1200A6C0FEF02AD0EC
:101F62004AC025F04BC026F064EC13F0120048C0C2
:101F720025F049C026F064EC13F0120046C025F0AB
:101F820047C026F064EC13F0120042C025F043C0B3
:101F920026F064EC13F0120044C025F045C026F090
:101FA20064EC13F012003EC025F03FC026F064EC52
:101FB20013F012000001FE51010AD8B4D1D7030A6E
:101FC200D8B4D5D7010AD8B4D9D7070AD8B4DDD73F
:101FD200010AD8B4E1D7030AD8A41200E4D7A6C0F4
:101FE200C0F1A7C0C1F1A8C0C2F11ED0C1C14AF060
:101FF200C2C14BF02DD0C1C148F0C2C149F028D0B6
:10200200C1C146F0C2C147F023D0C1C142F0C2C132
:1020120043F01ED0C1C144F0C2C145F019D0C1C1C4
:102022003EF0C2C13FF014D00101C051010AD8B440
:10203200DDD7030AD8B4DFD7010AD8B4E1D7070A3B
:10204200D8B4E3D7010AD8B4E5D7030AD8B4E7D79E
:102052002C0E10EC14F0120048C1C2F146C1C0F1BE
:1020620047C1C1F115D004000101C251C025136E50
:10207200000EC121146E490EC225D96EDA6A010E14
:10208200DA22DF50156E27EC12F0040081B2FED77F
:102092000101C207C229D8A4E6D70400120E4E6479
:1020A200FDD7070E0001606F42C161F036C062F0D9
:1020B200070E636F44C164F0070E656F78EC0BF096
:1020C2000101C051C111D8A412005AEC14F012003F
:1020D2000E01CEA91200C3A01200CE992D502B5C86
:1020E2002E502C58D8B029D083B403D0026A022AC9
:1020F20001D0026A0246024683500218FB0B021804
:10210200836EC390D8902B34D96E2C34DA6ECA0EFB
:10211200D926010EDA22DECF02F0DDCF03F0FA0E6D
:102122000224046EFF0E0320056E0450C15E0550AA
:10213200C25A2B4A2C2AC3801200C39012003AC002
:1021420013F03BC014F03CC015F03DC016F02D0E4C
:10215200176E7F0E186E950E196E4C0E1A6E90EC5D
:1021620011F0010E13243A6E000E14203B6E000E85
:1021720015203C6E000E16203D6E3AC021F03BC089
:1021820022F03CC023F03DC024F0120E05D0D890BE
:102192002432233222322132E82EF9D721C01FF015
:1021A20022C020F012001750181019101A10D8B4BB
:1021B20024D0010E1B6E06D0D89017361836193669
:1021C2001A361B2A1AAEF8D71750135C1850145837
:1021D200195015581A501658D8A008D01750135E27
:1021E2001850145A1950155A1A50165AD8901A32B1
:1021F2001932183217321B2EE7D713C013F014C04E
:1022020014F015C015F016C016F01200070E606F1C
:10221200A2C061F036C062F0A4C064F0A8510A0FF7
:10222200636F040E656FA6C066F0A7C067F0A8C012
:1022320068F066C0C0F167C0C1F168C0C2F10DD0DC
:10224200C251690FD96EDA6AC251C025136E000EEF
:10225200C121146E86EC12F0DF6E0101C207C229A1
:10226200D8A4EED778EC0BF01200070E606FA2C074
:1022720061F036C062F0A4C064F01C0E656FFF6BA3
:10228200FFC025F0080E25262550136E146A86EC31
:1022920012F00001FE6FFF51670FD96EDA6AFEC0BD
:1022A200DFFFFF2B100EFF6103D0FE51D8A4E8D749
:1022B200FE51D8A4FF2BFF05666FFF51070F636F16
:1022C20078EC0BF01200C60EF66E280EF76E000EBA
:1022D200F86E0900F5CF4EF001EECAF013EE20F0D1
:1022E200EE6AE550E150FCE1E250FAE101EE00F065
:1022F200C00EEE6AE806FDE100EE60F0950EEE6AB1
:10230200E806FDE14D6A4C6A00EE27F0170EEE6A10
:10231200E806FDE101900192000191EF07F0000E45
:102322001B6E000E1C6E000E1D6E000E1E6E13A0A4
:1023320008D017501B2618501C2219501D221A5063
:102342001E22D8901736183619361A36D8901632F9
:102352001532143213321350141015101610D8A45B
:10236200E6D71BC013F01CC014F01DC015F01EC030
:1023720016F01200156E0CD0400E1200C00E1200A4
:10238200200E1200A00E1200900E1200000E12007B
:102392001550136E146A1450000AD8A4F7D71350BC
:1023A200000AD8B4E9D7010AD8B4E8D7030AD8B4E6
:1023B200E7D7010AD8B4E6D7070AD8B4E5D7E6D7F3
:1023C200156E0AD0000E1200020E1200080E120044
:1023D2000C0E1200040E12001550136E146A1450E3
:1023E200000AD8A4EFD71350000AD8B4EBD7010AD9
:1023F200D8B4EAD7030AD8B4E9D7010AD8B4E8D7DF
:10240200070AD8B4E7D7DED7136E1350D8A402D088
:10241200010E136E040E13640BD0040E136E08D05B
:10242200800E1200A00E1200900E1200D00E1200AA
:102432001350010AD8B4F4D7030AD8B4F3D7010A67
:10244200D8B4F2D7070AD8B4F1D7EAD7000EF2BE51
:10245200010E166EF29E1450030B7F6E13C07EFFA8
:1024620015C080FF3F0E81168184550E826EAA0E22
:10247200826E818281B2FED7819481503F0B8009A6
:10248200816E16B002D0F29E01D0F28E1200D89068
:102492002D34D96E2E34DA6ECA0ED926010EDA2206
:1024A200F40EDE6E010EDD6E2D4A2E2AD8902D34EA
:1024B200D96E2E34DA6ECA0ED926010EDA22DC0E5D
:1024C200DE6E050EDD6E2D4A2E2A1200D8902D34B6
:1024D200D96E2E34DA6ECA0ED926010EDA22F40E25
:1024E200DE6E010EDD6E2D4A2E2AD8902D34D96E65
:1024F2002E34DA6ECA0ED926010EDA22F40EDE6E00
:10250200010EDD6E2D4A2E2A1200000EF2BE010EC1
:10251200156EF29E1450030B7F6E13C07EFF3F0EAA
:10252200811681800000000081503F0B8009816E7E
:1025320015B002D0F29E01D0F28E80501200020E2F
:102542000001606FA2C061F0A1C062F06251D8B414
:1025520036C062F0080E636FA4C064F0A0C065F0DC
:10256200A3519F0FD96EDA6ADF50666F78EC0BF0D9
:102572001200166A20EE03F01350D9261450DA2204
:10258200DF50156E1504176E08D017501324D96E3C
:10259200000E1420DA6EDF50162617061728D8A46C
:1025A200F4D716501200056A20EE03F00250D92625
:1025B2000350DA22DF50046E0404066E08D006507F
:1025C2000224D96E000E0320DA6EDF5005260606BD
:1025D2000628D8A4F4D705501200146E100E146009
:1025E20002D0100E146E1E0E146402D01E0E146E53
:1025F200100E145E1450110F136E13C0F6FF0F0E5F
:10260200F76E000EF86E0800F5501200070E00017A
:10261200606FA2C061F036C062F0190E676F0B0ED8
:10262200686F1B0E696F0B0E636FA4C064F0150E0A
:10263200656F030E666F78EC0BF0120003C113F0A6
:102642001350D8B412000CD0000E1324D96EDA6ADB
:10265200010EDA221350A00FE16EE26ADFCFE7FF2C
:1026620013061328D8A4F0D74C8E120013C02FF0F3
:1026720014C030F00DD0000015502F1804E1165090
:102682003018D8B405D02FC015F030C016F00400B1
:102692002F503010D8B41200EED7E1CF0CF0E2CFB9
:1026A2000DF0D9CF0EF0DACF0FF0C6EC0CF069ECDA
:1026B20010F00FC0DAFF0EC0D9FF0DC0E2FF0CC050
:1026C200E1FF01921100070E606FA2C061F036C0F7
:1026D20062F00A0E636FA4C064F02B0E656FA6C091
:1026E20066F025C067F026C068F078EC0BF01200A7
:1026F200A3C013F00CD01350A00FD96EDA6A000EEB
:102702001324E16EE26A010EE222DFCFE7FF130635
:102712001328D8B41200EFD7A3C013F00CD0135073
:10272200A00FD96EDA6A400E1324E16EE26A010E3E
:10273200E222DFCFE7FF13061328D8B41200EFD747
:1027420019C015F015EC0FF01A6E1950D96EDA6A2D
:10275200010ED9261950E16EE26A010EE126E75018
:10276200F00B1A10DF6E1200070E0001606FA2C09C
:1027720061F036C062F0090E636FA4C064F00A0E05
:10278200656F676B4F0E666F78EC0BF012000101FC
:10279200C06F030E0001606FC0C161F036C062F00D
:1027A200080E636F646BFEC065F0FFC066F0BCECA0
:1027B2000EF01200136E080E146E09D013AE03D081
:1027C20048EC12F002D067EC12F0D89013361406DF
:1027D2001428D8B41200F2D7136E13B013B202D079
:1027E2007D0E120013A013A202D0750E120013B0B8
:1027F20013A202D0730E12007F0E1200326A8FA053
:10280200328031503218D8B412004C8032C031F0CC
:10281200146A010E136E86EC12F0336E1200256EEE
:10282200070E0001606FA2C061F036C062F0070EB1
:10283200636FA4C064F025C065F078EC0BF0120061
:10284200256E0A0E0001606FA2C061F036C062F010
:10285200070E636FA4C064F025C065F078EC0BF03E
:1028620012001350D96EDA6ADE2803E1DE28D8B4EA
:1028720012001350D96EDA6ADE2A000EDD2212002F
:10288200FF0E1324156EFF0E1420166E15C03AF0BB
:1028920016C03BF03C6A3D6A1200146E136A04D003
:1028A20014B0132AD89014321450D8A4F9D7135064
:1028B2001200146A000E136E86EC12F0366E36C0E9
:0528C20039F01200FFD7
:020000040030CA
:0C000000ECDFFDF5E7C7FFCFFFFFFFFFBF
:020000040031C9
:100000004F320000000000004B6C696D6174696143
:1000100063652053616D73756E670000000000001A
:00000001FF
